:100000000C94DC000C9433200C940C200C94E51F11
:100010000C94BE1F0C9404010C9404010C94971FC3
:100020000C9404010C9404010C94451C0C94C31C06
:100030000C9404010C9404010C9404010C9404012C
:100040000C9404010C9404010C9404010C9404011C
:100050000C9404010C9404010C9404010C944D1FA5
:100060000C9404010C941B1F0C94F51E0C940401B9
:100070000C9404010C9404010C9404010C940401EC
:100080000C9404010C9404010C9404010C940401DC
:100090000C9404010C9404010C9404010C940401CC
:1000A0000C9404010C9404010C940401070605044B
:1000B0000100080A0B0C0D090000000024002700B5
:1000C0002A002D00300000000000250028002B0031
:1000D0002E003100000000002300260029002C0023
:1000E0002F000404040404030405020202020403B2
:1000F00002020202060606060606040402020204C2
:100100000404080201104080401020408040800814
:100110000204018040201002011080102040402085
:100120000000000200090F0000030401000C0000A1
:1001300000000000000000000000000000000008B7
:100140000B0002020200000904000001020200008C
:1001500005240010010524010101042402060524E0
:100160000600010705810310004009040100020A8E
:10017000000000070502024000000705830240005E
:10018000000403090412010002EF0201404123367A
:100190008000010102030141726475696E6F204C99
:1001A0004C430041726475696E6F204C656F6E61DF
:1001B00072646F00F620972A11241FBECFEFDAE099
:1001C000DEBFCDBF14E0A0E0B1E0E8E5F9E502C094
:1001D00005900D92A438B107D9F729E0A4E8B4E05E
:1001E00001C01D92A336B207E1F710E0CBEDD0E0DD
:1001F00004C02197FE010E94522BCA3DD107C9F7C6
:100200000E9446240C949F2C0C940000CF92DF9205
:10021000EF92FF92CF93DF93EC016A017B01E889B3
:10022000F98982E08083C11481EED806E104F104EB
:10023000A1F060E079E08DE390E0A70196010E94D3
:10024000E32A2150310941095109569547953795BF
:100250002795211580E1380798F0E889F9891082FF
:1002600060E874E88EE190E0A70196010E94E32A1D
:1002700021503109410951095695479537952795E0
:10028000EC85FD853083EE85FF852083188EEC8913
:10029000FD8986E08083EA89FB8980818061808393
:1002A000EA89FB89808188608083EA89FB89808173
:1002B00080688083EA89FB8980818F7D8083DF91DC
:1002C000CF91FF90EF90DF90CF9008958091D70568
:1002D0009091D8058130910561F08230910561F0EF
:1002E000892B71F481E090E09093D8058093D70535
:1002F000089582E090E0F8CF1092D8051092D705CB
:1003000008958093E9008091F200882319F08AE330
:100310008093E8000895809134068F5F0C948101EA
:100320004091A5055091A6052091A3053091A40503
:1003300042175307B4F49091E8009570E1F390915F
:10034000E80092FD19C08093F1008091A50590917D
:10035000A60501968F739927892B19F48EEF809348
:10036000E8008091A5059091A60501969093A605B9
:100370008093A50581E0089580E00895DF92EF92D3
:10038000FF920F931F93CF93DF93D82E8A01EB0137
:100390007B01E40EF51ECE15DF0559F0D7FE12C025
:1003A000FE0184910E94900121968111F4CF0FEFFC
:1003B0001FEFC801DF91CF911F910F91FF90EF9038
:1003C000DF9008958881EECF2FB7F89487708093DF
:1003D000E9009091E800892F807295FF04C0909108
:1003E000F20080E4891B2FBF08959091AC059923FA
:1003F00019F13FB7F89487708093E9008091F2007B
:1004000090E0481759070CF4CA01282FFB0154E665
:10041000215038F028985093A8054091F10041935D
:10042000F7CF009739F02091F200211103C02BE69D
:100430002093E8003FBF08958FEF9FEF08959FB787
:10044000F89487708093E9008091F2009FBF08952F
:10045000615030F02091F100FC0120830196F8CF2B
:10046000289884E68093A8050895AF92BF92CF9212
:10047000DF92EF92FF920F931F93CF93DF936C0164
:100480007B018B01040F151FEB015E01AE18BF0845
:10049000C017D10759F06991D601ED91FC910190F7
:1004A000F081E02DC6010995892B79F7C501DF910F
:1004B000CF911F910F91FF90EF90DF90CF90BF9061
:1004C000AF90089580919B0581110DC082E08093CB
:1004D000970584E08093980510929A0510929905EB
:1004E00081E080939B0587E995E008950F931F9322
:1004F000CF93DF931F92CDB7DEB782E0898342E4CA
:1005000050E06FE371E080E80E94BE010E94620249
:10051000DC0112960D911C910115110589F0D8018D
:10052000ED91FC910280F381E02DBE016F5F7F4F62
:10053000C801099597FD04C0F80100851185ECCF2D
:1005400089810F90DF91CF911F910F910895FC0148
:10055000538D448D252F30E0842F90E0821B930B28
:10056000541710F0CF96089501970895FC01918DCE
:10057000828D981761F0A28DAE0FBF2FB11D5D96D1
:100580008C91928D9F5F9F73928F90E008958FEF73
:100590009FEF0895FC01918D828D981731F0828D27
:1005A000E80FF11D858D90E008958FEF9FEF08957E
:1005B000FC01918D228D892F90E0805C9F4F821BE2
:1005C00091098F73992708958BE297E00E94D802D2
:1005D00021E0892B09F420E0822F089580E090E04B
:1005E000892B29F00E94E40281110C9400000895E7
:1005F000FC01A48DA80FB92FB11DA35ABF4F2C9198
:10060000848D90E001968F739927848FA689B7898E
:100610002C93A089B1898C9182748C93938D848D55
:10062000981306C00288F389E02D80818F7D808336
:100630000895EF92FF920F931F93CF93DF93EC01F6
:1006400081E0888F9B8D8C8D981319C0E889F9897A
:10065000808185FF14C09FB7F894EE89FF8960837D
:10066000E889F9898081827480839FBF81E090E06E
:10067000DF91CF911F910F91FF90EF900895F62E8B
:100680000B8D10E00F5F1F4F0F731127E02E8C8D25
:100690008E110CC00FB607FCFACFE889F98980816A
:1006A00085FFF5CFCE010E94F802F1CFEB8DEC0F64
:1006B000FD2FF11DE35AFF4FF0829FB7F8940B8F87
:1006C000EA89FB8980818062CFCFCF93DF93EC01F1
:1006D000888D8823B9F0AA89BB89E889F9898C912A
:1006E00085FD03C0808186FD0DC00FB607FCF7CFE6
:1006F0008C9185FFF2CF808185FFEDCFCE010E94E6
:10070000F802E9CFDF91CF910895CF93DF931F9245
:10071000CDB7DEB76983DC01ED91FC910280F381F6
:10072000E02D41E050E0BE016F5F7F4F09950F90D3
:10073000DF91CF91089583E00C94810183E00E94C2
:10074000E40190E00895CF93DF931F92CDB7DEB719
:10075000FC018485958597FD08C02FEF3FEF358715
:1007600024870F90DF91CF91089541E050E0BE01C2
:100770006F5F7F4F82E00E94F501019719F4898134
:1007800090E0EFCF8FEF9FEFECCF0F931F93CF93BE
:10079000DF931F92CDB7DEB78C01FC018485958570
:1007A00097FF0FC041E050E0BE016F5F7F4F82E0D6
:1007B0000E94F501019771F4898190E0F801958715
:1007C0008487F801848595850F90DF91CF911F91E3
:1007D0000F9108958FEF9FEFF1CFFC0184859585F0
:1007E00097FD06C082E00E941F0290E001960895E6
:1007F00082E00E941F0290E0089581508F3008F03F
:1008000047C0E82FF0E0E95FFB4F0C94522B240423
:10081000280416041C0420044804480448042B043B
:100820003104350439043F044804430480918000B6
:100830008F77809380000895809180008F7DF9CF1D
:1008400080918000877FF5CF84B58F7784BD089530
:1008500084B58F7DFBCF809190008F77809390003F
:100860000895809190008F7DF9CF80919000877FCF
:10087000F5CF8091C0008F778093C000089580915C
:10088000C0008F7DF9CF8091C200877F8093C20026
:100890000895CF93DF93282F30E0F901E05EFE4FFB
:1008A0008491F901EF5FFE4FD491F901EE51FF4FB2
:1008B000C491CC23A1F081110E94FD03EC2FF0E044
:1008C000EE0FFF1FEC52FF4FA591B491EC91ED2379
:1008D00081E090E009F480E0DF91CF91089580E01D
:1008E00090E0FACF1F93CF93DF93282F30E0F901E8
:1008F000E05EFE4F8491F901EF5FFE4FD491F90164
:10090000EE51FF4FC491CC23A9F0162F81110E9404
:10091000FD03EC2FF0E0EE0FFF1FEA53FF4FA59110
:10092000B4918FB7F894EC91111108C0D095DE23E3
:10093000DC938FBFDF91CF911F910895DE2BF8CF0D
:10094000CF93DF9390E0FC01EF5FFE4F24918E5137
:100950009F4FFC0184918823C9F090E0880F991F74
:10096000FC01E854FF4FA591B491FC01EA53FF4FFD
:10097000C591D49161110DC09FB7F8948C912095C9
:1009800082238C938881282328839FBFDF91CF9176
:100990000895623051F49FB7F8943C91822F80956E
:1009A00083238C93E8812E2BEFCF8FB7F894EC91B3
:1009B0002E2B2C938FBFEACF61E0809153090E94C8
:1009C000A00483EC90E00197F1F70895EF92FF9275
:1009D0000F931F93CF93DF93082F18E0C3ECD0E061
:1009E00061E0809152090E94A004CE010197F1F7C5
:1009F000E02EF12C60E000FF61E0809153090E943D
:100A0000A004CE010197F1F760E0809152090E94A5
:100A1000A004CE010197F1F7F594E7940E2D115043
:100A2000F9F661E0809152090E94A00460E0809193
:100A300053090E94A004CE010197F1F760E0809174
:100A400052090E94A0042197F1F7809153090E9456
:100A50004904182F811105C061E0809153090E945B
:100A6000A004C3ECD0E0CE010197F1F761E08091E2
:100A700052090E94A0042197F1F781E0111101C0F1
:100A800080E0DF91CF911F910F91FF90EF9008953B
:100A90000F931F93CF93DF9300E519E061E0F80116
:100AA00083810E94A004C3ECD0E0CE010197F1F74E
:100AB00060E0F80182810E94A004CE010197F1F765
:100AC00060E0F80183810E94A0042197F1F7DF9193
:100AD000CF911F910F9108950F931F93CF93DF93A1
:100AE00020915009222331F18C010E94DC0480E422
:100AF0000E94E6040E9448050E94DC0480EC0E94EB
:100B0000E604E8010C5F1F4F89910E94E604C017BC
:100B1000D107D1F70E9448050E94DC048091550955
:100B20008F7080580E94E604DF91CF911F910F9142
:100B30000C94480520915109222349F0FC01A6E5B7
:100B4000B9E0049621912D93E817F907D9F7DF91C1
:100B5000CF911F910F910895DF92EF92FF920F9323
:100B60001F93CF93DF9300D000D0CDB7DEB7F82E20
:100B7000E92E00EE11E09E012F5F3F4FF90141E0A9
:100B80008FE3D82ED8017E916E918D018F2D9E2DF1
:100B90000E943E2B61157105E9F4442321F08E2F4C
:100BA000821B8330A9F4D0823196B1E0083D1B0747
:100BB00049F7C9010E946C050F900F900F900F909C
:100BC000DF91CF911F910F91FF90EF90DF900895EB
:100BD0001082EACF7727DB01A953BE4F4C914083A7
:100BE000F82EE92E40E0E0CF3FB7F89480919305CE
:100BF00090919405A0919505B091960526B5A89B76
:100C000005C02F3F19F00196A11DB11D3FBFBA2F9E
:100C1000A92F982F8827BC01CD01620F711D811D5E
:100C2000911D42E0660F771F881F991F4A95D1F7E3
:100C300008958F929F92AF92BF92CF92DF92EF92E0
:100C4000FF924B015C010E94F4056B017C010E9444
:100C5000F4056C197D098E099F09683E7340810572
:100C60009105A8F321E0821A9108A108B10888EE45
:100C7000C80E83E0D81EE11CF11C81149104A1046C
:100C8000B10429F7FF90EF90DF90CF90BF90AF9025
:100C90009F908F9008957F928F929F92AF92BF9274
:100CA000CF92DF92EF92FF920F931F93CF93DF9338
:100CB000C82E8B017A018091AC05811110C08FEF95
:100CC0009FEFDF91CF911F910F91FF90EF90DF90F9
:100CD000CF90BF90AF909F908F907F90089580911C
:100CE000AA0580FF05C08091E00082608093E0004B
:100CF000CE2DDF2DD12C8AEFB82E8C2D8770982E1B
:100D00008C2D8072882E8C2D8074782E9AE3A92EDB
:100D1000209719F4DD2009F452C08C2D0E94E401C3
:100D200081110AC0BA94BB2051F261E070E080E00A
:100D300090E00E941906ECCF8C171D0611F00CF004
:100D40008C2F9FB7F8949092E9002091E80025FD40
:100D500002C09FBFDDCF282F30E0C21BD30B8820FD
:100D600029F08150A0F01092F100FBCFF801C7FCF0
:100D70000AC0815050F041914093F100FACF449164
:100D80004093F10031968150D0F7020F131FDD2000
:100D900021F0A092E800D12CDCCF8091E80085FD05
:100DA00007C0A092E800DD24D394209791F2F3CFFE
:100DB000209779F6772069F2A092E800CACF5D9873
:100DC00084E68093A905C7017CCFCF93DF93EC0124
:100DD00080911501882331F083E00E944B0618169C
:100DE000190634F081E090E09B838A8380E090E0F4
:100DF000DF91CF9108952FB7F89460918F0570918E
:100E0000900580919105909192052FBF08950895C6
:100E100090E080E0089580E008950F931F93CF93B2
:100E2000DF93CDB7DEB7C456D1090FB6F894DEBF55
:100E30000FBECDBFFC01DB019C919E5F9C939E0188
:100E4000295F3F4F8AE5D9011D928A95E9F788E02D
:100E500089838BE08A8322E02C8391E09D839E83AB
:100E600039E0398764E06A879E879F873A8B44E23E
:100E70004B8B9C8BA0E0B1E0BE8BAD8B09E010E00A
:100E8000188F0F8B998F3B8F6C8F2F8F98A353E008
:100E900059A387E08CA34DA39EA3B8A7AFA3A1E459
:100EA000B0E0BAA7A9A786E08BA74CA72DA79EA75D
:100EB0009FA789AB4AAB2BAB2CAB2DAB3FAB48AF5D
:100EC00059AF9AAF5BAF9CAF2DAF9EAF21963FAFAE
:100ED000219722964FAF229723965FAF23972496B0
:100EE0002FAF249725966FAF259726969FAF26970D
:100EF00027969FAF279728969FAF28972A963FAFB0
:100F00002A9745E02B964FAF2B972D962FAF2D9715
:100F100060E470E02F967FAF6EAF2F9763964FAF70
:100F2000639785E264968FAF649765969FAF6597E8
:100F300066969FAF669767969FAF679768963FAF35
:100F4000689769964FAF69976B962FAF6B976D96C1
:100F50007FAF6EAF6D97A1964FAFA197A2968FAF5F
:100F6000A297A3969FAFA397A4969FAFA497A59689
:100F70005FAFA59792819B839B879F5F9A8F9D8F81
:100F800083812C968FAF2C978F5F80686A968FAF86
:100F90006A9744E650E0BE016F5F7F4F80E00E9499
:100FA000BE01CC59DF4F0FB6F894DEBF0FBECDBFE8
:100FB000DF91CF911F910F9108950F931F93CF93BE
:100FC000DF93FC01EC01C557DF4F8881803F69F555
:100FD000673F21F0DF01A357BF4F6C938F010A5782
:100FE0001F4FD8018D919C918038910548F0E357AF
:100FF000FF4F608384E0DF91CF911F910F9108959F
:101000009F01280F391F47EFD90116964C9301967F
:10101000D8018D939C93DF01A857BF4F1C92188273
:10102000E457FF4F108282E0E6CF663F79F4608399
:1010300011821282DF01A757BF4F8C91882319F0CC
:10104000E457FF4F1082188285E0D5CF603F89F4C6
:10105000DF01A857BF4F81E08C936683129781E030
:1010600090E08D939C93E457FF4F1082688380E05B
:10107000C2CF673FE1F36883E657FF4F1082F7CF97
:10108000DC0152968D919C91DC01ED91FC910190D7
:10109000F081E02D0994CF93DF9300D000D01F9210
:1010A000CDB7DEB729833A834B835C836D83DC0144
:1010B00052968D919C914B815C8169817A81DC0192
:1010C000ED91FC910280F381E02D0F900F900F9035
:1010D0000F900F90DF91CF910994FF920F931F9380
:1010E000CF93DF938C01C42FF52ED62FDC015296BF
:1010F0008D919C91DC01ED91FC910190F081E02DAE
:10110000642F0995F80182899389DC01ED91FC91A6
:101110000190F081E02D6F2D0995C07FC13B10F04B
:10112000C03E81F4F80182899389DC01ED91FC9144
:101130000190F081E02D6D2FDF91CF911F910F91E4
:10114000FF900994DF91CF911F910F91FF90089527
:101150000F931F93CF93DF93EC018B018E819F81BF
:10116000009711F00E94A808E881F981008CF18DA8
:10117000E02DB801CE01DF91CF911F910F9109941D
:10118000CF92DF92EF92FF92CF93DF93EC016A014F
:101190007B018E819F81009711F00E94C008E88139
:1011A000F9810688F789E02DB701A601CE01DF910C
:1011B000CF91FF90EF90DF90CF9009940F931F9302
:1011C000CF93DF9300D000D01F92CDB7DEB78C0154
:1011D00029833A834B835C836D83DC0116968D9162
:1011E0009C91009711F00E94DE08D801ED91FC91CE
:1011F0000488F589E02D29813A814B815C816D81DC
:10120000C8010F900F900F900F900F90DF91CF912A
:101210001F910F910994CF92DF92EF92FF92CF939B
:10122000DF93EC016A017B018E819F81009711F0B1
:101230000E940B09E881F9810288F389E02DB7014A
:10124000A601CE01DF91CF91FF90EF90DF90CF907C
:101250000994DC011296ED91FC91309739F0848568
:101260009585009729F486859785089590E080E01C
:1012700008950E942909009751F08F3F980751F077
:10128000DC01ED91FC910480F581E02D099483E669
:1012900094E008958AE694E00895FC01A281B38168
:1012A000109749F0ED91FC9111970684F785E02D98
:1012B000AC01CD0109940895FC01A281B38110977E
:1012C00049F0ED91FC9111970484F585E02DAC0176
:1012D000CD01099408950F931F93CF93DF93EC01F1
:1012E0008B018E819F81009711F00E94A808888948
:1012F0009989009769F0DC01ED91FC910680F781F6
:10130000E02DA801BE01DF91CF911F910F910994AB
:10131000DF91CF911F910F910895CF93DF93DB0160
:101320001496ED91FC911597309701F12481358148
:1013300012964D915C91139721153105D1F0E90179
:101340007B836A8353834283B583A4831396FC9380
:10135000EE93129715963C932E93149741155105D1
:1013600061F0DA011596FC93EE931497DF91CF911B
:101370000895EC0179836883E5CFEC01FB83EA8370
:10138000F5CFDC015696ED91FC91309711F0CB0131
:1013900009940895DC015496ED91FC91309719F071
:1013A000CB01BA01099408950F931F93CF93DF9354
:1013B000CDB7DEB72A970FB6F894DEBF0FBECDBF0C
:1013C0002E833F83488759876A87DC015296ED91C7
:1013D000FC91309771F585E0FE013696DE0111969D
:1013E00001900D928A95E1F70091B1051091B20537
:1013F0000115110531F1D801ED91FC910284F385BD
:10140000E02D29813A814B815C816D81C80109956C
:10141000882311F1B80181EB95E02A960FB6F89474
:10142000DEBF0FBECDBFDF91CF911F910F910C9406
:101430008D094E815F81688579858A850995882324
:1014400051F22A960FB6F894DEBF0FBECDBFDF91E2
:10145000CF911F910F910895F80102811381C8CF98
:10146000EF92FF920F931F93CF93DF93D42FC52F4B
:10147000162F072FDC015096ED91FC913097C1F4A7
:101480008D2F807F803B09F04AC0C93781F5C0911C
:10149000C105D091C2052097C9F0E881F981068085
:1014A000F781E02DCE0109950A80DB81C02DF3CFB5
:1014B000642F752F812F902F0995882309F3DF91D1
:1014C000CF911F910F91FF90EF900895C091B905B2
:1014D000D091BA05209799F3E881F9810680F781C8
:1014E000E02DCE0109950A80DB81C02DF3CFE0907D
:1014F000C105F090C205CB3709F091C0C091C90574
:10150000D091CA052097D9F2E881F9810680F78148
:10151000E02DCE0109950A80DB81C02DF3CF813B00
:1015200060F5803949F0E090C505F090C605803A35
:1015300009F455C0803819F6E090C905F090CA0545
:10154000E114F10409F4BBCFD701ED91FC910284C1
:10155000F385E02D4D2F5C2F612F702FC70109956A
:101560008823B1F1B70189EC95E0DF91CF911F910C
:101570000F91FF90EF900C948D09803D09F470C09D
:10158000803E09F492C0803C09F099CFE090BD05FF
:10159000F090BE05E114F10409F491CFD701ED916B
:1015A000FC910284F385E02D4D2F5C2F612F702F6D
:1015B000C7010995882309F44FC0B7018DEB95E069
:1015C000DF91CF911F910F91FF90EF900C948D09B7
:1015D000F701E280F380B4CFF701E280F380E114F9
:1015E000F10409F46CCFD701ED91FC910284F385ED
:1015F000E02D4D2F5C2F612F702FC7010995882397
:1016000059F3B70185EC95E0DF91CF911F910F91D0
:10161000FF90EF900C948D09F701E280F380E114C4
:10162000F10409F44CCFD701ED91FC910284F385CC
:10163000E02D4D2F5C2F612F702FC7010995882356
:1016400059F3B70181EC95E0DF91CF911F910F9194
:10165000FF90EF900C948D09F701E280F3809ACF10
:10166000E090B905F090BA05E114F10409F427CF30
:10167000D701ED91FC910284F385E02D4D2F5C2F75
:10168000612F702FC7010995882359F0B70189EBA5
:1016900095E0DF91CF911F910F91FF90EF900C9407
:1016A0008D09F701E280F380DFCFE090B505F0907F
:1016B000B605E114F10409F402CFD701ED91FC91D4
:1016C0000284F385E02D4D2F5C2F612F702FC70111
:1016D0000995882359F0B70185EB95E0DF91CF910B
:1016E0001F910F91FF90EF900C948D09F701E2800C
:1016F000F380DFCFEF92FF920F931F93CF93DF938F
:10170000EC018B017A018C859D85009729F0681783
:10171000790711F00E946B291D861C868E819F819E
:10172000009781F02A853B852E153F0559F4DC0191
:10173000ED91FC910684F785E02DAE014C5F5F4F83
:10174000B801099588859985009759F0DC01ED91DC
:10175000FC910684F785E02DAE014C5F5F4FB80128
:1017600009958A859B850097D9F0E816F906C1F09E
:10177000DC01ED91FC910680F781E02DAE01B8010E
:1017800009956E857F856115710551F08A859B8568
:10179000DC01ED91FC910480F581E02DAE0109950D
:1017A0008A819B810097A9F09C012C5F3F4FE21634
:1017B000F30679F0DC01ED91FC91068CF78DE02DBC
:1017C000AE01B801DF91CF911F910F91FF90EF9083
:1017D0000994DF91CF911F910F91FF90EF900895A1
:1017E000EF92FF920F931F93CF93DF93EC018B0146
:1017F0007A018C859D85009729F06817790711F08B
:101800000E946B291D870C878E819F81009781F034
:101810002A853B852E153F0559F4DC01ED91FC919D
:101820000484F585E02DAE014C5F5F4FB80109954A
:1018300088859985009759F0DC01ED91FC9104842D
:10184000F585E02DAE014C5F5F4FB80109958A85A3
:101850009B850097D9F0E816F906C1F06E857F8563
:101860006115710541F0DC01ED91FC910680F78175
:10187000E02DAE0109958A859B85DC01ED91FC91F7
:101880000480F581E02DAE01B80109958A819B8124
:101890000097A9F09C012C5F3F4FE216F30679F008
:1018A000DC01ED91FC91048CF58DE02DAE01B801C9
:1018B000DF91CF911F910F91FF90EF900994DF91ED
:1018C000CF911F910F91FF90EF9008951F93CF93A9
:1018D000DF93DC011296CD91DC91209749F02C85A5
:1018E0003D858E859F852115310531F4009739F4AA
:1018F000DF91CF911F9108952F3F3F4F11F1019636
:1019000001F11BE08C859D85009721F42E853F8594
:10191000232B71F3115061F3009739F0DC01ED9145
:10192000FC910680F781E02D09958E859F850097B3
:1019300049F3DC01ED91FC910680F781E02D0995DA
:10194000E1CF0E946B29CF92DF92EF92FF92CF936B
:10195000DF93EC016A017B018E819F81892B51F01D
:10196000CE0104960E94660CB701A6018E819F816C
:101970000E94C00888899989009781F0DC01ED9167
:10198000FC910480F581E02DA7019601BE01DF9155
:10199000CF91FF90EF90DF90CF900994DF91CF919E
:1019A000FF90EF90DF90CF900895EF92FF920F930A
:1019B0001F93CF93DF93CDB7DEB72A970FB6F89476
:1019C000DEBF0FBECDBF7C012E833F834887598782
:1019D0006A8785E0FE013696DE01119601900D9230
:1019E0008A95E1F7D70116968D919C91892B71F01C
:1019F000C70104960E94660C29813A814B815C8163
:101A00006D81F701868197810E94DE08D70150968B
:101A10008D919C91009769F0DC01ED91FC91028021
:101A2000F381E02D0E811F81288539854A85B70114
:101A300009952A960FB6F894DEBF0FBECDBFDF9191
:101A4000CF911F910F91FF90EF900895CF92DF9269
:101A5000EF92FF92CF93DF93EC016A017B018E81BD
:101A60009F81892B51F0CE0104960E94660CB7012C
:101A7000A6018E819F810E940B0988899989009710
:101A800081F0DC01ED91FC910190F081E02DA70146
:101A90009601BE01DF91CF91FF90EF90DF90CF9044
:101AA0000994DF91CF91FF90EF90DF90CF90089550
:101AB000FC01228133812115310569F4FB01228566
:101AC0003385232B11F00E946B2993878287FC01B9
:101AD000738362830895C9010496EACFFC012281D1
:101AE00033812115310569F4FB0120853185232BD4
:101AF00011F00E946B2991878087FC0173836283B8
:101B00000895C901EBCFCF93DF93EC0188859985C8
:101B10000097E1F06A817B8161157105B9F0DC0104
:101B20001296ED91FC911397309731F01186108643
:101B300013961C921E921297EA81FB81309721F036
:101B4000118610861B821A820E946E0D8A859B85E3
:101B50000097E1F06E817F8161157105B9F0DC01BC
:101B60001296ED91FC911397309731F013861286FF
:101B700013961C921E921297EE81FF81309721F0EE
:101B8000138612861F821E820E94580DE885F985F1
:101B9000309751F0A281B381109731F019961C92C1
:101BA0001E92189713821282EA85FB85309751F0B6
:101BB000A281B381109731F01B961C921E921A9746
:101BC000138212828A819B81892B21F48E819F81CD
:101BD000892B11F00E946B29DF91CF910895CF934B
:101BE000DF93EC018A819B81009749F004960E9463
:101BF000EF0D8A819B810E94830D1B821A82DF91E7
:101C0000CF9108952FE731E0FC01318320830C94BC
:101C1000EF0DCF93DF93EC018A819B81009741F018
:101C20000E94090E8A819B810E94830D1B821A8269
:101C3000DF91CF910895CF93DF93EC0186E492E09A
:101C4000998388838CE592E09D838C83CE0188966E
:101C50000E94212ACE0148960E94212A85EA93E01B
:101C6000998388838BEB93E09D838C83CE010496CC
:101C70000E94020E8DE891E099838883CE01DF9166
:101C8000CF910C94090E04970C941B0EBC016115A6
:101C900080E8780709F444C0A091CD05B091CE0545
:101CA0006B32710540F5E62F623110F0EEEEE60F73
:101CB000F0E0E455FF4FE49190917B008E2F880F68
:101CC000880F80729F7D892B80937B00E770E06492
:101CD000E0937C0080917A00806480937A00809108
:101CE0007A0086FDFCCF9091780080917900892759
:101CF0009827892708951097B1F018968D919C9197
:101D000019976817790778F01A962D913C911B97CF
:101D10006217730750F012960D90BC91A02DEBCF77
:101D200090E080E008950E946B29681B790BED918B
:101D3000FC9111970488F589E02DCD0109940F934A
:101D40001F93FC010581168127813085DB01CA01C3
:101D5000880F991FAA1FBB1F880F991FAA1FBB1F9F
:101D60000370112722273327802B912BA22BB32B13
:101D700085839683A783B08741875287638774875B
:101D8000458756876787708B1F910F910895AF9293
:101D9000BF92CF92DF92EF92FF920F931F93CF9358
:101DA000DF93EC017B018A01690188810E9449046B
:101DB000B82E8A810E944904880F991FB82A8C8105
:101DC000B81609F440C0EC814D815E816F81788541
:101DD00084E0E802F00111248B2D0B2C000C990BF0
:101DE000E82BF92BE954FE4F9081892F990F990B1D
:101DF000AA0BBB0B840F951FA61FB71F8D839E8355
:101E0000AF83B88783E0B8121DC08D819E81AF81FA
:101E1000B88522E0B595A795979587952A95D1F72E
:101E200089879A87AB87BC8789899A89AB89BC895E
:101E30008D8B9E8BAF8BB88F0E94FB06698B7A8B44
:101E40008B8B9C8BBC8289859A85AB85BC855C011C
:101E50008E159F05DCF4A7010F2C000C660B770B89
:101E6000CE010E949F0E5701CA14DB0419F0C50170
:101E70000E94AC05C501DF91CF911F910F91FF909A
:101E8000EF90DF90CF90BF90AF900895081719079B
:101E90005CF7A801012E000C660B770BCE010E94A7
:101EA0009F0E5801E1CF0F93CF93DF9300D000D066
:101EB000CDB7DEB78295807F682B69834A832B83F9
:101EC0000C838091340644E050E0BE016F5F7F4F89
:101ED0008F5F0E944B060F900F900F900F90DF9135
:101EE000CF910F9108950F93FC01862F02812181DC
:101EF000408164E00E94530F0F9108950F93FC01FD
:101F0000842F6230710599F06330710541F06130C2
:101F1000710559F400E020E0408165E004C00281D1
:101F20002181408167E00E94530F0F91089500E0E6
:101F30002181408166E0F7CF0496089502960895C6
:101F400005960895029608950396089502960895B9
:101F5000EF92FF920F931F93CF93DF93EC018D8548
:101F60009E850E94460E9C0174E0220F331F7A95D5
:101F7000E1F7E6E096958795EA95E1F7282B392B6E
:101F800089899A89280F391FC901029696958795E4
:101F900096958795281B390B3A8B298BEF85F88905
:101FA000309709F009954B895C899A013695322F53
:101FB00022273795279520644115510551F0B90125
:101FC0006F5771094F3F514008F069C08617970756
:101FD00030F021583F4F2817390708F064C0880FA8
:101FE000892F881F990B91959C8B8B8B3885EE815F
:101FF000FF81303809F431812281230F3081239F02
:10200000202D112449855A854130510509F43FC0DE
:1020100048F04230510509F43FC020E060E070E034
:1020200050E005C0722F7F7720E060E051E04B85E3
:10203000DC850D2F02950F705423142F1695170F62
:10204000DF70D60F552379F1020FE0907D06F090F6
:102050007E06DF70D06B1F77C82FCF770F70F70128
:1020600086819781892BF9F0C70104960E94660C3E
:102070004D2F512F6C2F702FF70186819781DF91A3
:10208000CF911F910F91FF90EF900C940B09622F4D
:102090006F7020E070E0CACF2F7060E0FBCF861732
:1020A000970708F49CCFDF91CF911F910F91FF907C
:1020B000EF900895CF93DF93EC018D859E850E946C
:1020C000460E9C0144E0220F331F4A95E1F756E08B
:1020D000969587955A95E1F7822B932B9C01220FB9
:1020E000331F220F331F281B390B3A8B298B880F84
:1020F000892F881F990B91959C8B8B8BDF91CF91AA
:102100000895FC01EE55FF4F40815181628173813A
:10211000FC01828993890C94060108970C94811024
:102120000C948B010F93CF93DF93EC01462F872FF5
:1021300000E020E06FE00E94530FCF51DF4F888115
:10214000882329F0DF91CF910F910C948B01DF91BF
:10215000CF910F9108950F93CF93DF93EC01252F2B
:10216000872FE42FF0E094E0F595E7959A95E1F755
:10217000062F6E2F0E94530FCF51DF4F8881882387
:1021800029F0DF91CF910F910C948B01DF91CF91CA
:102190000F91089508950895089508950895CF938F
:1021A000DF93AC01FB01C481D581209721F08281AE
:1021B00093819B838A83DA0112968D919C91139768
:1021C0008E179F0721F41396DC93CE93129782818A
:1021D0009381009729F0DC011596DC93CE93149738
:1021E000DA012D913C9111972E173F0711F48D9331
:1021F0009C931582148213821282DF91CF910895ED
:10220000CF92DF92EF92FF92C090D205D090D3058B
:10221000D694DC2CCC24D794C794F12CE12C8130BB
:1022200020E4920710F080E090E4811528E0920706
:1022300010F480E098E0B0E0A0E09C01AD013850DF
:102240004109510960911601709117017695762F19
:1022500066277795679590E080E06C197D098E0977
:102260009F090E94D32A20E038E340E050E00E941A
:10227000052BDA01C9018C0D9D1DAE1DBF1DFF9000
:10228000EF90DF90CF900895CF92DF92EF92FF9280
:10229000C090D405D090D505D694DC2CCC24D7940E
:1022A000C794F12CE12C813020E4920710F080E0FB
:1022B00090E4811528E0920710F480E098E0B0E007
:1022C000A0E09C01AD01385041095109609118010D
:1022D000709119017695762F66277795679590E02E
:1022E00080E06C197D098E099F090E94D32A20E0A5
:1022F00038E340E050E00E94052BDA01C9018C0D63
:102300009D1DAE1DBF1DFF90EF90DF90CF900895F3
:10231000CF93DF93683710F00E946B29FC01648330
:10232000C681D781209759F0E881F9810480F58131
:10233000E02DCE0109950A80DB81C02DF3CFDF911E
:10234000CF910895FC0187E791E0918380833097D6
:10235000A1F08091AD059091AE05E817F90741F025
:1023600082819381892B21F484819581892B29F0A5
:10237000BF018DEA95E00C94CF100895FC0187EA27
:1023800091E0918380833097A1F08091DD05909159
:10239000DE05E817F90741F082819381892B21F44A
:1023A00084819581892B29F0BF018DED95E00C94F6
:1023B000CF10089529EC33E0FC01318320832FEE08
:1023C00033E0358324832DEF33E03187208729E004
:1023D00034E0378726870C943F2A25E134E0FC015E
:1023E000318320832BE334E03583248329E434E0F4
:1023F0003187208725E534E0378726870C94DA116A
:1024000004970C94ED1108970C94ED110E970C9411
:10241000ED1104970C94DA1108970C94DA110E97C9
:102420000C94DA112AE632E0FC013183208320E9A2
:1024300032E0358324832EE932E0318720872AEA8F
:1024400032E0378726870C943F2A26EB32E0FC01E6
:10245000318320832CED32E0358324832AEE32E071
:102460003187208726EF32E0378726870C941212B7
:1024700008970C94251204970C9425120E970C942F
:10248000251222E033E0FC013183208328E233E08F
:102490003583248326E333E03187208722E433E049
:1024A000378726870C94251204970C9441120897BD
:1024B0000C9441120E970C94411204970C94121232
:1024C00008970C9412120E970C94121208952FE490
:1024D00033E0FC01318320830C94BE112FEA31E0FC
:1024E000FC01318320830C946712683F38F0DC01D3
:1024F000ED91FC91048CF58DE02D09940895242F25
:10250000287F203F59F4403F49F06F77DC01ED917F
:10251000FC91008CF18DE02D5F7709940895CF93A5
:10252000DF93CDB7DEB72A970FB6F894DEBF0FBEA4
:10253000CDBF2E833F83488759876A8725E0FE01F8
:102540003696DE01119601900D922A95E1F72885C5
:102550003985232BA1F0DC01ED91FC91028CF38DE8
:10256000E02D29813A814B815C816D812A960FB6DD
:10257000F894DEBF0FBECDBFDF91CF9109942A96AC
:102580000FB6F894DEBF0FBECDBFDF91CF91089597
:1025900020E8240F203748F46F77DC01ED91FC919F
:1025A0000688F789E02D5F77099408950895FC0166
:1025B000608171818281938108950F931F93CF93DE
:1025C000DF93CDB7DEB72A970FB6F894DEBF0FBE04
:1025D000CDBF633009F464C08C01643078F461309D
:1025E00019F1623099F12A960FB6F894DEBF0FBE4A
:1025F000CDBFDF91CF911F910F910895643031F1DC
:10260000653089F744960E94D712AB01BC01C8011E
:102610002A960FB6F894DEBF0FBECDBFDF91CF91E3
:102620001F910F910C94A30C44960E94D712AB01FA
:10263000BC01C8012A960FB6F894DEBF0FBECDBF0D
:10264000DF91CF911F910F910C94260DF801E65662
:10265000FF4F808191819801265E3F4F3A83298305
:102660009C838B838D81807F8D8385E0FE013196F5
:10267000DE01169601900D928A95E1F72E813F8139
:10268000488559856A85C8012A960FB6F894DEBF39
:102690000FBECDBFDF91CF911F910F910C94D50C40
:1026A000FC01608D718D2A960FB6F894DEBF0FBEC7
:1026B000CDBFDF91CF911F910F910C946B090F93B8
:1026C0001F93CF93DF93CDB7DEB72A970FB6F89459
:1026D000DEBF0FBECDBF633009F46EC08C01643025
:1026E00078F4613019F1623099F12A960FB6F894B6
:1026F000DEBF0FBECDBFDF91CF911F910F91089527
:10270000643031F1653089F743960E94D712AB01EE
:10271000BC01C8012A960FB6F894DEBF0FBECDBF2C
:10272000DF91CF911F910F910C94A30C43960E94BF
:10273000D712AB01BC01C8012A960FB6F894DEBFD0
:102740000FBECDBFDF91CF911F910F910C94260D3D
:10275000F801218D2F70F3E82F9FC0011124F8019B
:10276000E80FF91FE656FF4F40815181800F911FFE
:102770004A969A8389835C834B838D81807F822BE9
:102780008D8385E0FE013196DE01169601900D9253
:102790008A95E1F72E813F81488559856A85C80170
:1027A0002A960FB6F894DEBF0FBECDBFDF91CF9152
:1027B0001F910F910C94D50CFC016789708D2A969E
:1027C0000FB6F894DEBF0FBECDBFDF91CF911F9142
:1027D0000F910C946B098AE794E00895DC01189638
:1027E0008D919C91009739F0DC01ED91FC91028470
:1027F000F385E02D09940895DC0118968D919C9144
:10280000009739F0DC01ED91FC910084F185E02D19
:1028100009940895CF93DF93CDB7DEB72A970FB60B
:10282000F894DEBF0FBECDBF2E833F834887598704
:102830006A8725E0FE013696DE01119601900D9221
:102840002A95E1F7DC0118968D919C910097A1F0F3
:10285000DC01ED91FC910680F781E02D29813A8120
:102860004B815C816D812A960FB6F894DEBF0FBE56
:10287000CDBFDF91CF9109942A960FB6F894DEBFB1
:102880000FBECDBFDF91CF910895DC0118968D91D9
:102890009C91009739F0DC01ED91FC910480F58169
:1028A000E02D09940895DC011A968D919C91009772
:1028B00039F0DC01ED91FC910084F185E02D099463
:1028C00090E080E0089504970C945314DC0118966E
:1028D0008D919C91009739F0DC01ED91FC9100887D
:1028E000F189E02D099490E080E00895089508951D
:1028F000FC019081923F29F081E0943F18F080E044
:10290000089582E00895AF92BF92CF92DF92FF9236
:102910000F931F93CF93DF9300D000D0CDB7DEB7D6
:102920006C012BE8C20ED11CF6012081211107C0D9
:1029300031962081222309F458C0F6012083F62E17
:102940008C01F6019081F801908380E8890F58018D
:10295000FAE8AF0EB11CF5012081222399F18037EE
:1029600050F4F8016283F501108232969083F601EB
:10297000108281E019C0892F887F803F09F04BC009
:10298000903F09F448C0F8016283F5011082F80114
:10299000E757FF4F8081882321F0F801E457FF4F6C
:1029A0001082F601108285E00F900F900F900F902B
:1029B000DF91CF911F910F91FF90DF90CF90BF904B
:1029C000AF900895803798F4892F807F813B40F045
:1029D000803E31F0F80161831282E457FF4FC6CF89
:1029E000F801F18281E0F501808380E0DDCF892F5D
:1029F000887F803F71F4903FA9F4F801EA57FF4FB8
:102A0000208131812038310530F13796F08284E021
:102A1000CBCF903F91F3F801E457FF4F1082F601BE
:102A20001082E3CFF80180819181A281B3818983F3
:102A30009A83AB83BC83CE0101960E9478148230C6
:102A400079F2CE0101960E947814813021F7F801C5
:102A5000F18212829DCFD801A20FB31F1696FC926D
:102A60002F5F3F4F31832083C0CFEF92FF920F93B0
:102A70001F93CF93DF93EC01EA88FB888C010C5EF7
:102A80001F4FFC01EF55FF4F60816F3FF1F08FEF5B
:102A9000808332978081803F31F435971182108294
:102AA00081E03296808367FF0BC0683FF8F0688F43
:102AB00083E0DF91CF911F910F91FF90EF900895E8
:102AC000C8010E9483148111F4CFD701ED91FC91CC
:102AD0000284F385E02DC701099597FD0BC0682F8F
:102AE00087FFEECF883F10F0888FE2CFC8010E94A9
:102AF000DD07E9CF80E0DDCF8F929F92AF92BF924A
:102B0000CF92DF92EF92FF920F931F93CF93DF93B9
:102B1000EC010E943515F82E882309F452C05E019D
:102B200024E0A20EB11CC5010E9429096E01EEE04D
:102B3000CE0ED11C209711F4D12CC12C8C159D05E3
:102B400021F4B601C5010E944D09E12C00E811E015
:102B50004E01FAE98F0E911C6F2DCE010E94DD12FD
:102B600024E0F21221C0F40180819181081B190B2D
:102B7000EE24E39417FD06C0CE010E943515F82E11
:102B80008111EACFEE20E9F0B601C501DF91CF91C6
:102B90001F910F91FF90EF90DF90CF90BF90AF907B
:102BA0009F908F900C945C09F2E0FF1207C0F40133
:102BB00080819181081B190BE12CDCCF0350110996
:102BC000D9CFDF91CF911F910F91FF90EF90DF90C0
:102BD000CF90BF90AF909F908F900895CF92DF924B
:102BE000EF92FF921F93CF93DF93EC017C0124E0DF
:102BF000E20EF11CC7010E943909BE01625F7F4FDE
:102C0000209711F470E060E0C7010E944D090E9416
:102C1000FB066B017C010E94FB066C197D098E0985
:102C20009F09643F71408105910560F4CE010E94C7
:102C30003515182F682FCE010E94DD12143039F39C
:102C4000123049F7DF91CF911F91FF90EF90DF9005
:102C5000CF9008950E970C94EE150C94EE150F93EB
:102C60001F93CF93DF9300D000D0CDB7DEB78C0198
:102C700049835A836B837C83DC0152968D919C91AE
:102C8000DC01ED91FC910190F081E02D642F09951C
:102C9000CE0101960E947814882359F0F8018289A8
:102CA0009389DC01ED91FC910190F081E02D6A8126
:102CB0000995CE0101960E947814823058F0F801EF
:102CC00082899389DC01ED91FC910190F081E02DE6
:102CD0006B8109950F900F900F900F90DF91CF911E
:102CE0001F910F910895EF92FF920F931F93CF932F
:102CF000DF9300D000D0CDB7DEB77C0149835A8383
:102D00006B837C831C81CE0101960E9478148130F4
:102D1000E1F000F1823039F40B812A81498163E0CE
:102D2000812F0E94530FF701EF51FF4F80818823BD
:102D3000B1F00F900F900F900F90DF91CF911F91F6
:102D40000F91FF90EF900C948B0100E02A81498154
:102D500062E0E6CF00E020E0498165E0E1CF0F903E
:102D60000F900F900F90DF91CF911F910F91FF90D7
:102D7000EF9008950E94912C84E0EEE7F4E0DB01EF
:102D800001900D928A95E1F784E00895CF92DF9249
:102D9000FF920F931F93CF93DF93CDB7DEB72C979E
:102DA0000FB6F894DEBF0FBECDBF242F30E0E4E0B5
:102DB00035952795EA95E1F72115310511F080E069
:102DC00027C0E42FEF70E250EE30C8F7F0E0E55195
:102DD000F94E0C94522BF916F91616177017B017F6
:102DE000101868186818681868186818681868183B
:102DF0007818DC015C9311966C93119712967C9372
:102E0000129713962C911397207F13962C9385E09D
:102E10002C960FB6F894DEBF0FBECDBFDF91CF91D9
:102E20001F910F91FF90DF90CF90089549875A87A7
:102E30006B877C87503F99F563E8629FA001639F91
:102E4000500D1124480F591FFA01E957FF4F118205
:102E5000108247575F4F61E0FA01608363E8629F29
:102E6000D001639FB00D11249C012A0F3B1F2957ED
:102E70003F4FF901608171816E377105F0F049852E
:102E80005A856B857C85FC01E657FF4F4083518353
:102E900062837383DC0116961C9284E0B9CF43E809
:102EA000429FF001439FF00D1124E80FF91FE757EF
:102EB000FF4F40814111D2CF82CF1796A60FB71F87
:102EC000A80FB91F83E0FE013A9601900D928A95F2
:102ED000E1F7F901808191810396918380836FCF1F
:102EE000F12C573F29F0DC015C931396FC928FCFB5
:102EF000A3E8A29FF001A39FF00D11249C012E0FC7
:102F00003F1F6901B9E8CB0ED11CD601EC91EE232D
:102F100009F455CF890109571F4FD801ED91FC9154
:102F2000E038F10568F0FC01E657FF4F4083319629
:102F300050833196608331967083FC01F682ADCF69
:102F40002E0F3F1FD90117965C933196D801ED9350
:102F5000FC93F6011082DC011696FC9282E058CFB9
:102F60004D835E836F83788760E0503F99F573E807
:102F7000729FA001739F500D1124480F591FFA0131
:102F8000E957FF4F1182108247575F4F71E0FA01F6
:102F9000708373E8729FF001739FF00D11249C0100
:102FA0002E0F3F1FD901A957BF4F0D911C911197AB
:102FB0000F371105E8F00D811E812F813885FC0146
:102FC000E657FF4F0083118322833383DC0116967B
:102FD0006C9363CF43E8429FF001439FF00D1124AF
:102FE000E80FF91FE757FF4F40814111D2CFE7CEDD
:102FF0003796E00FF11FE80FF91F4E815F81518373
:1030000040834D915C9111974E5F5F4F4D935C9360
:1030100027573F4FF9011082DC0116966C939ECF23
:1030200049835A836B837C8360E0503F49F573E8A2
:10303000729FA001739F500D1124480F591FFA0170
:10304000E957FF4F1182108247575F4F71E0FA0135
:10305000708373E8729FD001739FB00D11249C019F
:103060002A0F3B1F890109571F4FF80140815181E9
:103070004E37510598F009811A812B813C819FCFF1
:1030800043E8429FF001439FF00D1124E80FF91F20
:10309000E757FF4F40814111DCCF91CE1796A40F27
:1030A000B51FA80FB91F43E0FE01329601900D92A3
:1030B0004A95E1F7F801408151814D5F5F4F51839F
:1030C000408327573F4FD9011C92FC01668346CFAE
:1030D000DC015C9311966C93119712967C93129776
:1030E00013962C911397207F13962C9381E090CE0A
:1030F000FC0154832581207F258383E089CE8F9234
:103100009F92AF92BF92CF92DF92EF92FF920F9376
:103110001F93CF93DF9300D000D0CDB7DEB78C01E3
:10312000FC01E657FF4F8081882309F140815181DE
:10313000628173811082D80116968C918F70F8018C
:1031400023E8829FE00DF11D1124CF01E757FF4FC7
:103150002081222339F089579F4FDC011D921C9258
:1031600081E08083C8010E94C616811163C08091EE
:10317000840590918505A0918605B09187054091C1
:1031800088055091890560918A0570918B05841B93
:10319000950BA60BB70B8F739927AA27BB27892BF3
:1031A0008A2B8B2B09F457C0809188059091890553
:1031B000A0918A05B0918B05880F991F880F991FE0
:1031C000FC01EC57FB4F80815181628173818090BB
:1031D000840590908505A0908605B0908705C090E5
:1031E0008805D0908905E0908A05F0908B058C14B5
:1031F0009D04AE04BF04D1F0C0908805D09089052D
:10320000E0908A05F0908B05FFEFCF1ADF0AEF0AF6
:10321000FF0A2FE3C222DD24EE24FF24C09288059A
:10322000D0928905E0928A05F0928B05482F811192
:1032300099CF80E00F900F900F900F90DF91CF917A
:103240001F910F91FF90EF90DF90CF90BF90AF90C4
:103250009F908F900895809134060E941F0270E025
:1032600060E050E0882309F4B2CFC0908405D0908C
:103270008505E0908605F0908705BFEFCB1ADB0A45
:10328000EB0AFB0AEFE3CE22DD24EE24FF2480913B
:10329000880590918905A0918A05B0918B058C15C0
:1032A0009D05AE05BF0509F47FCF809134060E94CD
:1032B0001F0244E050E0BE016F5F7F4F80913406F3
:1032C0000E94F50104970CF46FCF809184059091D2
:1032D0008505A0918605B0918705880F991F880FF5
:1032E000991F8C579B4F49815A816B817C81DC01EE
:1032F0004D935D936D937C931397C0928405D09208
:103300008505E0928605F0928705B7CF8F929F9250
:10331000AF92BF92EF92FF921F93CF93DF93EC0196
:103320007C0124E0E20EF11CC7010E943909BE01B4
:10333000625F7F4F209711F470E060E0C7010E9448
:103340004D090E94FB064B015C017E0183E1E80E02
:10335000F11C0E94FB06681979098A099B09643FE0
:1033600071408105910588F4C7010E947F18182FCC
:10337000682FCE010E945F13143029F40E94FB06CF
:103380004B015C01E6CF123021F7DF91CF911F9105
:10339000FF90EF90BF90AF909F908F9008950E9701
:1033A0000C9486190C9486197F928F929F92AF92FB
:1033B000BF92CF92DF92EF92FF920F931F93CF9322
:1033C000DF93EC014C0123E1820E911CC4010E94A9
:1033D0007F18F82E882309F461C05E0184E0A80EEE
:1033E000B11CC5010E9429096E012EE0C20ED11C3C
:1033F000209711F4D12CC12C8C159D0521F4B60118
:10340000C5010E944D09E12C00E811E083E8782E07
:103410006F2DCE010E945F1384E0F8122AC0898DBF
:103420008F70FE01789EE00DF11D1124E656FF4FCE
:1034300080819181081B190BEE24E39417FD06C0CF
:10344000C4010E947F18F82E8111E2CFEE2031F1E5
:10345000B601C501DF91CF911F910F91FF90EF90C1
:10346000DF90CF90BF90AF909F908F907F900C9403
:103470005C0922E0F2120FC0898D8F70FE01789EE8
:10348000E00DF11D1124E656FF4F80819181081B4C
:10349000190BE12CD3CF03501109D0CFDF91CF917D
:1034A0001F910F91FF90EF90DF90CF90BF90AF9062
:1034B0009F908F907F90089508970C94D4190C9446
:1034C000D4193F924F925F926F927F928F929F9208
:1034D000AF92BF92CF92DF92EF92FF920F931F9322
:1034E000CF93DF93CDB7DEB72C970FB6F894DEBF3E
:1034F0000FBECDBF9C878B872E833F83488759871C
:103500006A8785E0FE013696DE01119601900D92E4
:103510008A95E1F7C884D984C114D10409F449C05B
:103520004E805F809A859F703D80A92EB12CF2015C
:1035300080810B851C850F551F4F803F21F4F801BA
:10354000EA0DFB1D10AAD201760138016A0C7B1C22
:10355000F0E36F0E711C9501220F331F2A0D3B1DE6
:10356000200F311F4D01F3015081533008F072C01C
:1035700081E0850F80834D91F901E50FF11D4083B6
:10358000F1E0EF1AF10871F7C40CD51CF601319780
:103590002081273F79F5682F70E0432D980153E093
:1035A000959F200D311D1124C9010E947E0FF3014A
:1035B0001082EB85FC85EF51FF4F8081882309F451
:1035C00062C02C960FB6F894DEBF0FBECDBFDF9160
:1035D000CF911F910F91FF90EF90DF90CF90BF9010
:1035E000AF909F908F907F906F905F904F903F90A3
:1035F0000C948B018330E9F6632D9801989F200D80
:10360000311D1124C9010E94730FD1CFC40CD51CE8
:10361000F60131978081873F49F043E0E416F104D9
:1036200079F4632DC4010E94730F05C0432DB701C7
:10363000C4010E947E0F0A0D1B1DF80110AAB9CF0C
:103640000A0D1B1DF801E0AAA701B401C3010E94E5
:10365000962CAFCF3801F3E09F9F600C711C1124B2
:10366000632DC3010E94730FF4E0EF16F10470F2B2
:10367000632DC4010E94730F23E0820E911C33E07E
:10368000E31AF108F1CF2C960FB6F894DEBF0FBE07
:10369000CDBFDF91CF911F910F91FF90EF90DF9001
:1036A000CF90BF90AF909F908F907F906F905F90E2
:1036B0004F903F9008950C94082CCF93DF93EC012A
:1036C0000E94020ECE01DF91CF910C94082CCF9373
:1036D000DF93EC010E941B0ECE01DF91CF910C9481
:1036E000082C04970C94671B0C94082C0C94082C41
:1036F000CF93DF93EC010E946E12CE01DF91CF9148
:103700000C94082CCF93DF93EC010E944112CE0160
:10371000DF91CF910C94082C04970C94821B08978E
:103720000C94821B0E970C94821BCF93DF93EC01B9
:103730000E94ED11CE01DF91CF910C94082C0497DB
:103740000C94951B08970C94951B0E970C94951B45
:10375000CF93DF93EC010E94A211CE01DF91CF91B4
:103760000C94082CCF93DF93EC010E94BE11CE0184
:10377000DF91CF910C94082CCF93DF93EC010E9442
:10378000DA11CE01DF91CF910C94082C0E970C9496
:10379000BC1B08970C94BC1B04970C94BC1BCF93C8
:1037A000DF93EC010E942512CE01DF91CF910C94A2
:1037B000082C0E970C94CF1B08970C94CF1B0497E2
:1037C0000C94CF1BCF93DF93EC010E941212CE0119
:1037D000DF91CF910C94082C0E970C94E21B089764
:1037E0000C94E21B04970C94E21BCF93DF93EC0143
:1037F0000E946712CE01DF91CF910C94082C0F9399
:103800001F93CF938091D7059091D805892BC9F547
:10381000C0911A0190E080E00E94BD2AC81729F0EB
:103820006C2F90E080E00E94C52AC0911C0181E0CD
:1038300090E00E94BD2AC81729F06C2F81E090E02B
:103840000E94C52A0E94FB060091D9051091DA0555
:103850002091DB053091DC05601B710B820B930B13
:10386000683E73408105910528F48FE691E00E943F
:103870006C05E8CF8FE991E0CF911F910F910C94E7
:103880006C05CF911F910F9108951F920F920FB663
:103890000F9211242F933F934F935F936F937F93D6
:1038A0008F939F93AF93BF93CF93EF93FF93C09169
:1038B000E1008091E100837F8093E100C3FF0FC0AE
:1038C0001092E90081E08093EB001092EC0082E31B
:1038D0008093ED001092AC0588E08093F000C2FF69
:1038E0001BC083E00E9481018091A905882341F0DB
:1038F0008091A90581508093A905811101C05D9A2D
:103900008091A805882341F08091A805815080937B
:10391000A805811101C0289AC4FF23C08091E2004C
:103920008E7E81608093E2008091E1008F7E8093A3
:10393000E1008091AA058E7E80618093AA05FF91A7
:10394000EF91CF91BF91AF919F918F917F916F91A7
:103950005F914F913F912F910F900FBE0F901F904D
:103960001895C0FFECCF8091E2008E7E806180933D
:10397000E2008091E1008E7E8093E1008091AA05B3
:103980008E7E8160DACF1F920F920FB60F921124B4
:10399000CF92DF92EF92FF920F931F932F933F935B
:1039A0004F935F936F937F938F939F93AF93BF9347
:1039B000EF93FF93CF93DF93CDB7DEB76C97DEBF66
:1039C000CDBF1092E9008091E80083FF25C068E038
:1039D000CE0145960E94280282EF8093E8008D89EF
:1039E00087FF39C09091E80090FFFCCF982F907628
:1039F00009F034C19E894F89588D2F89F88C911117
:103A000031C0803861F58091AB058093F100109250
:103A1000F1008EEF8093E8006C960FB6F894DEBF4D
:103A20000FBECDBFDF91CF91FF91EF91BF91AF91CD
:103A30009F918F917F916F915F914F913F912F91C6
:103A40001F910F91FF90EF90DF90CF900F900FBEDE
:103A50000F901F9018959EEF9093E800C7CF10929B
:103A6000F100D5CF913059F48111D3CF41305105B8
:103A700081F68091AB058D7F8093AB05CACF9330E3
:103A800049F48111C6CF4130510519F68091AB053B
:103A90008260F2CF953041F48091E80080FFFCCF46
:103AA00020682093E300B5CF963009F0A9C00B8DB4
:103AB0001C8D22E01092E9001092A6051092A50537
:103AC000F2122EC01092A4051092A3050E94760255
:103AD0001F8299E09983FA8291E09E8390EA988709
:103AE0009AEF99872091A5053091A605275F3F4F52
:103AF0003C832B838D831092E9001092A6051092CF
:103B0000A5051093A4050093A30549E050E0BE016C
:103B10006F5F7F4F80E00E94BE010E94760279CFE6
:103B20001093A4050093A3050E946202DC01129683
:103B30000D911C910115110509F451C1D801ED91A8
:103B4000FC910480F581E02DBE016B5E7F4FC801C2
:103B50000995009709F03EC1F80100851185EACF6B
:103B6000F3E0FF120EC08F89882309F440C0823031
:103B700061F440E860E183EA91E00E943829811114
:103B800048CF81E28093EB0047CF813029F440E8B1
:103B90006BE087E991E0F1CF833099F70E946202F0
:103BA000DC011296ED90FC908E010F5F1F4F6801B3
:103BB000E114F10479F0D701ED91FC910680F781D1
:103BC000E02DB801C7010995080F111DF701E08428
:103BD000F184EECFD8011C92F60101900020E9F7A4
:103BE0003197BF016C197D0940E0C601C6CF61E87D
:103BF00071E0FB01449150E080E80E94BE0109CFD2
:103C0000973009F4BECF983021F481E08093F10021
:103C100000CF993009F0FDCE837009F0B2CFE1E218
:103C2000F1E081E031E096E32191222371F080936D
:103C3000E9003093EB00DF0111972C912093EC0009
:103C40009093ED008F5F873079F78EE78093EA00DD
:103C50001092EA008F898093AC05DBCE8B8D9C8D12
:103C60001092E9001092A6051092A5059093A40564
:103C70008093A305898D811192C08E899D89913A87
:103C800049F4813209F07DCF47E050E06EE071E009
:103C900080E0B3CF913209F074CF833269F48F8919
:103CA000988DB0E0A0E080930A0190930B01A0935F
:103CB0000C01B0930D01ADCE803269F48091E80023
:103CC00082FFFCCF67E08EE091E00E9428028BEF3C
:103CD0008093E8009ECE823209F09BCE8F8980933C
:103CE0001501EEEFFFE7859194918B3F9C4D51F1CB
:103CF000E0E0F8E080910E0190910F01A091100199
:103D0000B0911101803B9440A105B105F1F480917F
:103D1000150180FD1AC0EE3F8AE0F80789F587E7B4
:103D200097E791838083809160008093A70588E165
:103D30009BE00FB6F894A895809360000FBE909317
:103D4000600067CEEEEFFAE0D5CF808191818737B2
:103D5000974709F05ECEA8958091600088618093B6
:103D600060008091A70580936000EE3F2AE0F20793
:103D700089F08091FE0A9091FF0A9183808349CE59
:103D8000808191818737980751F29093FF0A809341
:103D9000FE0AC5CF1092FF0A1092FE0A3ACE0E9488
:103DA0006202DC0112960D911C910115110509F4B6
:103DB000E8CED801ED91FC910190F081E02DBE019B
:103DC0006B5E7F4FC8010995811123CEF8010085F4
:103DD0001185EBCF181619060CF41BCED2CEF1E0EC
:103DE000FF12BECE65E871E004CF1F920F920FB6AE
:103DF0000F9211242F933F934F935F936F937F9371
:103E00008F939F93AF93BF93EF93FF938BE297E0D2
:103E10000E94F802FF91EF91BF91AF919F918F9116
:103E20007F916F915F914F913F912F910F900FBEB6
:103E30000F901F9018951F920F920FB60F9211249A
:103E40002F938F939F93EF93FF93E0913B07F09114
:103E50003C078081E0914107F091420782FD1BC041
:103E60009081809144078F5F8F732091450782175F
:103E700041F0E0914407F0E0E55DF84F958F8093C5
:103E80004407FF91EF919F918F912F910F900FBE5B
:103E90000F901F9018958081F4CF1F920F920FB64C
:103EA0000F9211242F933F938F939F93AF93BF93C0
:103EB00080918F0590919005A0919105B091920508
:103EC00030918E0523E0230F2D3758F50196A11D63
:103ED000B11D20938E0580938F0590939005A0933C
:103EE0009105B09392058091930590919405A091CE
:103EF0009505B09196050196A11DB11D809393057E
:103F000090939405A0939505B0939605BF91AF91BA
:103F10009F918F913F912F910F900FBE0F901F9007
:103F2000189526E8230F0296A11DB11DD2CF1F922E
:103F30000F920FB60F9211242F933F934F935F93DD
:103F40006F937F938F939F93AF93BF93EF93FF9361
:103F5000E0910801F09109010995FF91EF91BF915E
:103F6000AF919F918F917F916F915F914F913F9111
:103F70002F910F900FBE0F901F9018951F920F92C8
:103F80000FB60F9211242F933F934F935F936F932C
:103F90007F938F939F93AF93BF93EF93FF93E091A2
:103FA0000601F09107010995FF91EF91BF91AF9143
:103FB0009F918F917F916F915F914F913F912F9141
:103FC0000F900FBE0F901F9018951F920F920FB673
:103FD0000F9211242F933F934F935F936F937F938F
:103FE0008F939F93AF93BF93EF93FF93E09104015F
:103FF000F09105010995FF91EF91BF91AF919F91CC
:104000008F917F916F915F914F913F912F910F9081
:104010000FBE0F901F9018951F920F920FB60F9220
:1040200011242F933F934F935F936F937F938F93BD
:104030009F93AF93BF93EF93FF93E0910201F091B1
:1040400003010995FF91EF91BF91AF919F918F91DE
:104050007F916F915F914F913F912F910F900FBE84
:104060000F901F9018951F920F920FB60F92112468
:104070002F933F934F935F936F937F938F939F9370
:10408000AF93BF93EF93FF93E0910001F091010193
:104090000995FF91EF91BF91AF919F918F917F9182
:1040A0006F915F914F913F912F910F900FBE0F90A5
:1040B0001F901895EF92FF920F931F93CF93DF936A
:1040C000CDB7DEB72E970FB6F894DEBF0FBECDBFCB
:1040D00079011E870D875987488720E82A871C8623
:1040E0001B8637E0FE013896DE01119601900D9295
:1040F0003A95E1F7DC0113961C921E9212971596E1
:104100001C921E92149727EA31E02D933C93209144
:10411000DD053091DE05232B21F49093DE0580939D
:10412000DD05E091DF05F091E005DC011596FC93DB
:10413000EE931497309711F0938382839093E00568
:104140008093DF05FC011382128237E0FE01319675
:10415000DC01169601900D923A95E1F7DC011E966E
:10416000FC92EE921D9750961C921E921F975296AB
:104170001C921E92519754961C921E9253972FEAAE
:1041800031E02D933C932E960FB6F894DEBF0FBE10
:10419000CDBFDF91CF911F910F91FF90EF900895C8
:1041A000FC01138212821582148287E791E09183C9
:1041B00080838091AD059091AE05892B21F4F09319
:1041C000AE05E093AD05A091AF05B091B005B58304
:1041D000A483109721F01396FC93EE931297F0931B
:1041E000B005E093AF05138212820895EF92FF921B
:1041F0000F931F93CF93DF9310922E0710922D07EA
:1042000088EE93E0A0E0B0E080932F079093300712
:10421000A0933107B093320724EE31E030932C079E
:1042200020932B072DEC30E030933807209337078D
:104230002CEC30E030933A072093390728EC30E03B
:1042400030933C0720933B0729EC30E030933E0746
:1042500020933D072AEC30E03093400720933F073E
:104260002EEC30E030934207209341071092440730
:104270001092450710924607109247071092E405E6
:104280001092E3058093E5059093E605A093E7057A
:10429000B093E80586EF91E09093E2058093E10505
:1042A0008FEF9FEF9093EE058093ED0582E0809372
:1042B0003506809336068BE396E09093380680931C
:1042C000370610923A061092390688E092E09093F1
:1042D00032068093310680E880933B0681E8809324
:1042E0003C060E946202FC01818190913506482FB4
:1042F000490F5527551F483051059CF5A281B381C0
:10430000109709F521E336E033832283208120933F
:1043100033068093340680913606820F8083209185
:104320003706A22FB09138068A2F821B8917C8F44E
:1043300081813D91C82FD0E0C05EDE4F38838F5F12
:104340008183F2CFD90118962D913C9119972115AF
:104350003105C1F721E336E019963C932E93189767
:10436000D5CF80917506811195C0109240061092AC
:104370003F06109244061092430686E492E0909322
:104380003E0680933D068CE592E090934206809332
:1043900041068AE191E4A0E0B0E080934506909365
:1043A0004606A0934706B09348061092490610921D
:1043B0004A0610924B0610924C060E94F40500919A
:1043C0004506109146062091470630914806601B2D
:1043D000710B820B930B6093490670934A0680938E
:1043E0004B0690934C0610924E0610924D0610927A
:1043F000500610924F0610925206109251061092DB
:1044000054061092530610925806109257061092B6
:104410005C0610925B0624E132E03093560620934E
:10442000550688E392E090935A06809359061092BD
:104430005E0610925D061092600610925F06109262
:104440006206109261061092640610926306109242
:1044500068061092670610926C0610926B063093F5
:1044600066062093650690936A068093690610920B
:104470006E0610926D061092700610926F061092E2
:10448000720610927106109274061092730681E003
:10449000809375068DE396E090937E0680937D066B
:1044A000C1E0C0935009109251098EE080935209E7
:1044B0008FE08093530960E08EE00E94A00460E0EA
:1044C000809153090E94A00460E0809152090E94EB
:1044D000720460E0809153090E9472041092710886
:1044E00010927008109275081092740885EAE82EF0
:1044F00083E0F82EF0926F08E0926E080BEB13E069
:10450000109373080093720886E798E00E94D02009
:1045100010927F0810927E08D0914A031092810871
:104520001092820810928308D09384081092850814
:1045300080918608807F8093860880918708807F9D
:1045400080938708E8E8F8E083E8DF011D928A9508
:10455000E9F710920B0910920C0910920D091092B4
:104560000E09EFE3F9E080E1DF011D928A95E9F79A
:10457000C0934F0985E194E090936F0880936E0893
:104580008BE394E0909373088093720889E494E03D
:10459000909377088093760885E594E090937D0862
:1045A00080937C081092CB071092CA071092CF0715
:1045B0001092CE07F092C907E092C8071093CD077A
:1045C0000093CC0780ED97E00E94D0201092D9078D
:1045D0001092D8078BE297E09093DB078093DA077D
:1045E0001092DC071092DD071092DE07D093DF07F0
:1045F0001092E0078091E107807F8093E10710929D
:1046000063081092620810926408C09365081092C3
:10461000660810926708109268088FEF8093690807
:1046200082E19AE7A0E0B0E080936A0890936B087B
:10463000A0936C08B0936D0882E093E09093C90753
:104640008093C80788E293E09093CD078093CC07CE
:1046500086E393E09093D1078093D00782E493E0C0
:104660009093D7078093D60710921907C0931A0723
:1046700010921B0710921C0781E694E09093180794
:104680008093170710921E0710921D0710922007A3
:1046900010921F0710922307C0932407109225073A
:1046A00010922607909322078093210710922807E3
:1046B0001092270710922A071092290792E0E92EFC
:1046C000F12CF092FF06E092FE0603E010E010935A
:1046D00001070093000762E082E00E94A00462E00C
:1046E00083E00E94A004C3E0C09302071092030776
:1046F0001092040710920507109206071092070700
:10470000109208071092090710920A0710920B07DF
:1047100010920C0710920D0710920E07F092E60609
:10472000E092E5061093E8060093E70662E082E077
:104730000E94A00462E083E00E94A004C093E90606
:104740001092EA061092EB061092EC061092ED061B
:104750001092EE061092EF061092F0061092F106FB
:104760001092F2061092F3061092F4061092F506DB
:1047700082E390E09093AE068093AD0680E991E0ED
:104780009093B0068093AF0680E293E09093B206D8
:104790008093B1061092B6061092B5061092B80634
:1047A0001092B7061092BA061092B9061092BC0683
:1047B0001092BB061092BE061092BD061092C00663
:1047C0001092BF061092C2061092C1061092C40643
:1047D0001092C3061092C6061092C5061092C80623
:1047E0001092C7061092CA061092C9061092CC0603
:1047F0001092CB061092CE061092CD061092D006E3
:104800001092CF061092D4061092D3061092D606BC
:104810001092D5061092D8061092D7061092DA069A
:104820001092D9061092DC061092DB0681E090E02F
:104830009093E4068093E30684E090E09093AC06C6
:104840008093AB061092B4061092B30662E00E9409
:10485000A0044AE157E070E060E001E010E022E1EE
:1048600030E08FE796E00E945A2044E257E070E083
:1048700060E02BE130E085E996E00E945A20DF916C
:10488000CF911F910F91FF90EF900895CF93DF93F9
:1048900000D000D0CDB7DEB7789484B5826084BDF7
:1048A00084B5816084BD85B5826085BD85B5816034
:1048B00085BD80916E00816080936E0010928100B2
:1048C000809181008260809381008091810081606D
:1048D000809381008091800081608093800080912E
:1048E000910082608093910080919100816080931B
:1048F0009100809190008160809390008091C10030
:1049000084608093C1008091C10082608093C10067
:104910008091C10081608093C1008091C30081605B
:104920008093C3008091C00082608093C00080911A
:10493000C20081608093C20080917A00846080937D
:104940007A0080917A00826080937A0080917A0068
:10495000816080937A0080917A00806880937A00E9
:104960001092AC051092AB051092AA058091D70069
:1049700081608093D70080EA8093D80089B58061F8
:1049800089BD89B5826089BD09B400FEFDCF61E0B3
:1049900070E080E090E00E9419068091D8008F7C42
:1049A00080618093D8008091E000807F8093E00058
:1049B0008091E1008E7E8093E1008DE08093E200A3
:1049C000559A209A8BE08093550940911E01509191
:1049D0001F01052E000C660B770B8EEF96E00E94F0
:1049E0009F0E40911A0150911B01052E000C660B81
:1049F000770B85EE96E00E949F0E90E080E00E948B
:104A0000BD2A8F3F09F473C090E080E00E94BD2A68
:104A100090E090931B0180931A0181E090E00E9446
:104A2000BD2A90E090931D0180931C0160911A01B2
:104A300087E197E00E948811E0912107F091220719
:104A40000190F081E02D60911C0181E297E00995D1
:104A500080E091E190938F0680938E0684E491E14B
:104A60009093A5068093A4068FEA90E09093B006F9
:104A70008093AF0684E190E09093AE068093AD06FC
:104A800087E791E09093B2068093B10686E691E0C5
:104A90009093B6068093B5068FEF9BE19093BC068A
:104AA0008093BB068091E3069091E40682309105E5
:104AB00014F482E090E09093E4068093E30642E1F0
:104AC0005AE760E070E08BE297E00E9406010091F7
:104AD0007D0610917E0640906701509068015A82D1
:104AE000498292012230310550F00E946B2981E009
:104AF00090E00E94BD2A8F3F09F086CF97CF898131
:104B00009A8101969093680180936701780134E05F
:104B1000E30EF11C49805A80E5E0440C551CEA95EF
:104B2000E1F79201295C3E4F6901B901C7010E947A
:104B3000580DA201495D5E4F5A834983BA01C801ED
:104B40000E946E0D69817A8182E798E00E94580D7B
:104B5000B6018EE698E00E946E0D809167019091FB
:104B600068019A8389838230910508F0BECF01964F
:104B7000909368018093670149805A8055E0440C06
:104B8000551C5A95E1F79201295C3E4F6901B90124
:104B9000C7010E94580DA201495D5E4F5A834983A7
:104BA000BA01C8010E946E0D69817A818CEC97E090
:104BB0000E94580DB60188EC97E00E946E0D62E0ED
:104BC000E62EF12CCC24C394D12C40E0242E40E0DE
:104BD000342E8091AB069091AC0697FD60C00E9488
:104BE00049048C014090B3065090B4060E94FB0625
:104BF0004B015C018091DD069091DE06A091DF06FD
:104C0000B091E006B501A401481B590B6A0B7B0B60
:104C10008091D9069091DA068230910509F4CDC0D1
:104C20007CF4009729F18130910509F46DC09093CF
:104C3000DC068093DB061092DA061092D9062FC0AC
:104C40008630910509F44AC18730910509F468C19D
:104C50008330910561F70415150509F0D8C09093CC
:104C6000DC068093DB06D092DA06C092D9066FC0CC
:104C700004151505A1F41092DC061092DB06D09203
:104C8000DA06C092D9068092DD069092DE06A092E6
:104C9000DF06B092E0061092E2061092E1060E9452
:104CA000FB066093D9057093DA058093DB0590933A
:104CB000DC058091D7059091D8058130910509F4E4
:104CC0004EC28230910509F49AC2892B09F03BC289
:104CD0008FE991E00E946C0500917D0610917E069F
:104CE000A090CD05B090CE05A114B10409F441C146
:104CF000D501ED91FC91048CF58DE02DC501099550
:104D0000F501A280B380F0CF0415150549F100919B
:104D1000AD061091AE0630E020E040175107620763
:104D2000730768F42091DB063091DC069093DC0673
:104D30008093DB063093DA062093D906B0CF9093A8
:104D4000DC068093DB06F092DA06E092D9068092C8
:104D5000DD069092DE06A092DF06B092E0069FCFBD
:104D60008091B1069091B206B0E0A0E0841795075B
:104D7000A607B70708F093CFE091C706F091C806E1
:104D8000309709F00995E091C906F091CA0630976D
:104D900029F08091CB069091CC0609958091D90697
:104DA0009091DA069093DC068093DB0686E090E033
:104DB0009093DA068093D90672CF8090AD069090DA
:104DC000AE06B12CA12C04151505D1F448155905D2
:104DD0006A057B0508F4A6CF8091E1069091E20672
:104DE00001969093E2068093E106F092DC06E09251
:104DF000DB06A3E0B0E0B093DA06A093D9064FCF6C
:104E0000481559056A057B0508F449CFE5CF80911F
:104E1000E1069091E2060091AF061091B00630E0F5
:104E200020E0041715072607370740F02091E30616
:104E30003091E4062817390709F031CF8130910508
:104E400031F5E091B506F091B606309709F0099575
:104E5000E091B706F091B8068091B9069091BA0634
:104E6000309741F51092DA061092D9061092DC06BE
:104E70001092DB061092E2061092E1061092DD0617
:104E80001092DE061092DF061092E00608CF02971D
:104E900099F4E091BB06F091BC06309709F00995B2
:104EA000E091BD06F091BE068091BF069091C006CC
:104EB0003097C1F20995D6CFE091C106F091C206B4
:104EC000309709F00995E091C306F091C406309738
:104ED00049F28091C5069091C606ECCF04151505E0
:104EE00059F09093DC068093DB06E7E0F0E0F09366
:104EF000DA06E093D9062BCFE091D306F091D406E1
:104F0000309709F00995E091D506F091D6063097D3
:104F100009F4C5CE8091D7069091D8060995BFCEE9
:104F20008090AD069090AE06B12CA12C041515050D
:104F3000C9F4481559056A057B0508F4F3CEE091DC
:104F4000CD06F091CE06309709F00995E091CF0695
:104F5000F091D0068091D1069091D206309709F059
:104F6000A9CF80CF481559056A057B0508F497CE6F
:104F7000E6CFA090DD05B090DE05A114B10461F08C
:104F8000D501ED91FC910680F781E02DC5010995D1
:104F9000F501A280B380F1CFA090AD05B090AE0531
:104FA000A114B10461F0D501ED91FC910680F78167
:104FB000E02DC5010995F501A280B380F1CFA09045
:104FC000C905B090CA05A114B10461F0D501ED91F5
:104FD000FC910084F185E02DC5010995F501A280C1
:104FE000B380F1CFA090C505B090C605A114B1045F
:104FF00061F0D501ED91FC910084F185E02DC501B2
:105000000995F501A280B380F1CFA090C105B090C1
:10501000C205A114B10461F0D501ED91FC910084A9
:10502000F185E02DC5010995F501A280B380F1CF8E
:10503000A090BD05B090BE05A114B10461F0D501EA
:10504000ED91FC910084F185E02DC5010995F501F4
:10505000A280B380F1CFA090B905B090BA05A11499
:10506000B10461F0D501ED91FC910084F185E02D52
:10507000C5010995F501A280B380F1CFA090B505D7
:10508000B090B605A114B10461F0D501ED91FC9189
:105090000084F185E02DC5010995F501A280B3805A
:1050A000F1CFA090B105B090B205A114B10461F0A8
:1050B000D501ED91FC910084F185E02DC5010995A4
:1050C000F501A280B380F1CF0E94F405D8011C96AF
:1050D0004D905D906D907C901F9749825A826B82B3
:1050E0007C8218968D909D90AD90BC901B97AB01E3
:1050F000BC014419550966097709481559056A051F
:105100007B0558F0D301C201880D991DAA1DBB1D56
:10511000F80184879587A687B7870091CD05109100
:10512000CE050115110561F0D801ED91FC91028CBD
:10513000F38DE02DC8010995F80102811381F1CFAB
:10514000F1E0F093D6052114310409F442CD0E9418
:10515000E402882309F439CD0E94000036CD009185
:105160001E0110911F018091D605882329F0C801E6
:105170000E94AC051092D605980142E050E061E033
:1051800070E08EEF96E00E94C70E90931F0180930F
:105190001E015C0121E0A21AB1088501000F111F58
:1051A000F801E65EFE4F40815181052E000C660B32
:1051B000770B85EE96E00E949F0EF801EE52FA4FB3
:1051C00043E250E051834083F801EA5EFE4F84E6FB
:1051D00090E091838083A6E1AA9DC001AB9D900DD4
:1051E00011248158994F30E0432E31E1532EFC01B8
:1051F000508A4786552453945092D105A4CF0091EC
:105200001E0110911F01015011095801AA0CBB1C6D
:10521000F501E65EFE4F808091808091D105882364
:1052200029F0C4010E94AC051092D105940147E712
:1052300050E070E060E085EE96E00E94C70E682FB7
:10524000D501A65EBE4F8C9311969C938AE0682E82
:10525000609ED001619EB00D1124A95EB84FED9102
:10526000FC9111970190F081E02DCD0109956BCF54
:10527000EF92FF920F931F93CF93DF93F82E192F86
:10528000E62E042F81E0860F880F0E94900183E0B4
:105290000E949001CF2DD12FEC0EFD2EF11CCE15CA
:1052A000DF05B9F007FF13C0FE0184910E94900151
:1052B000182F80E00E949001812321968111EFCF69
:1052C000DF91CF911F910F91FF90EF90089588810A
:1052D000EDCF81E0F5CF61E08DE00E94A00461E0B8
:1052E0008DE00E94720462E370E080E090E00E9432
:1052F000190660E08DE00E94720462E370E080E0D5
:1053000090E00E94190661E08DE00E94720462E361
:1053100070E080E090E00E94190660E08DE00E945D
:10532000720462E573E080E090E00E941906D7CF36
:105330000F931F93CF93DF93EC018B0188859985A1
:1053400084179507F9F41D861C868A859B8500972E
:1053500041F0DC01ED91FC910680F781E02DAE017A
:1053600009958A819B81009701F1DC01ED91FC9107
:10537000068CF78DE02DAE01B801DF91CF911F9122
:105380000F9109946E857F856017710771F41F86F0
:105390001E868A859B85009741F0DC01ED91FC918A
:1053A0000680F781E02DAE01E8CFDF91CF911F910C
:1053B0000F91089504970C9498290F931F93CF93FE
:1053C000DF93EC01888599858417950701F58B019A
:1053D0007D876C878A859B85009741F0DC01ED9184
:1053E000FC910480F581E02DAE0109958A819B81B5
:1053F0000097F9F0DC01ED91FC91048CF58DE02D26
:10540000AE01B801DF91CF911F910F9109948E8564
:105410009F85892B71F47F876E878A859B8500978E
:1054200041F0DC01ED91FC910480F581E02DAE01AD
:10543000E9CFDF91CF911F910F91089504970C94BC
:10544000DD29CF93DF93EC0184E192E09983888397
:1054500088E392E09D838C83CE010E94830DCE0170
:1054600004960E94020E8DE891E099838883CE0114
:10547000DF91CF910C94090E04970C94212ACF93BD
:10548000DF93EC018BE593E0998388838FE793E0CA
:105490009D838C838DE893E09987888789E993E0E1
:1054A0009F878E8780918C0590918D05009749F498
:1054B0002091AF053091B0052115310511F0C901DA
:1054C0000897C817D90721F410928D0510928C0502
:1054D0008FE493E099878887CE0108960E94A211F5
:1054E00085EA93E0998388838BEB93E09D838C839B
:1054F000CE0104960E94020E8DE891E09983888384
:10550000CE01DF91CF910C94090E08970C947C1575
:105510000C947C15CF93DF93EC010E94212ACE01DD
:10552000DF91CF910C94082C04970C948A2AE09177
:105530009506F09196060190F081E02D85E996E0C0
:1055400009958FE796E00E946E1287E591E00E9430
:10555000212A87E491E00E94212A87E391E00E94BA
:10556000212A87E291E00E94212A88EC97E00E949C
:1055700041128EE698E00C94ED11F999FECF92BDA0
:1055800081BDF89A992780B50895262FF999FECF05
:105590001FBA92BD81BD20BD0FB6F894FA9AF99A50
:1055A0000FBE01960895DB018F939F930E94242BD9
:1055B000BF91AF91A29F800D911DA39F900DB29FAF
:1055C000900D11240895A1E21A2EAA1BBB1BFD0108
:1055D0000DC0AA1FBB1FEE1FFF1FA217B307E407D2
:1055E000F50720F0A21BB30BE40BF50B661F771F2A
:1055F000881F991F1A9469F760957095809590950A
:105600009B01AC01BD01CF010895052E97FB1EF44F
:1056100000940E941C2B57FD07D00E94E32A07FC30
:1056200003D04EF40C941C2B509540953095219549
:105630003F4F4F4F5F4F08959095809570956195BE
:105640007F4F8F4F9F4F08950E942F2BA59F900D46
:10565000B49F900DA49F800D911D11240895A29FC9
:10566000B001B39FC001A39F700D811D1124911D36
:10567000B29F700D811D1124911D089597FB072E77
:1056800016F4009407D077FD09D00E94582B07FC30
:1056900005D03EF4909581959F4F08957095619542
:1056A0007F4F0895EE0FFF1F0590F491E02D0994B0
:1056B000AA1BBB1B51E107C0AA1FBB1FA617B70738
:1056C00010F0A61BB70B881F991F5A95A9F7809554
:1056D0009095BC01CD0108950F931F93CF93DF9355
:1056E0008230910510F482E090E0E0916109F09140
:1056F000620930E020E0B0E0A0E0309799F4211595
:10570000310509F44AC0281B390B24303105D8F57E
:105710008A819B816115710589F1FB0193838283E5
:10572000FE0111C040815181028113814817590740
:10573000E0F04817590799F4109761F012960C930E
:10574000129713961C933296CF01DF91CF911F9140
:105750000F9108950093610910936209F4CF211508
:10576000310551F04217530738F0A901DB019A01C6
:10577000BD01DF01F801C1CFEF01F9CF90936209BC
:1057800080936109CDCFFE01E20FF31F81939193C6
:105790002250310939832883D7CF20915F09309176
:1057A0006009232B41F420916B0130916C013093FF
:1057B000600920935F092091690130916A012115E8
:1057C000310541F42DB73EB740916D0150916E0106
:1057D000241B350BE0915F09F0916009E217F30794
:1057E000A0F42E1B3F0B2817390778F0AC014E5F51
:1057F0005F4F2417350748F04E0F5F1F5093600925
:1058000040935F09819391939FCFF0E0E0E09CCFBC
:10581000CF93DF930097E9F0FC0132971382128255
:10582000A0916109B0916209ED0130E020E010978C
:10583000A1F420813181820F931F20915F09309163
:1058400060092817390709F061C0F0936009E093F7
:105850005F09DF91CF910895EA01CE17DF07E8F5E0
:105860004A815B819E0141155105B1F7E901FB8336
:10587000EA8349915991C40FD51FEC17FD0761F4D4
:10588000808191810296840F951FE9019983888315
:10589000828193819B838A83F0E0E0E012968D9170
:1058A0009C9113970097B9F52D913C911197CD01DB
:1058B0000296820F931F20915F093091600928178B
:1058C000390739F6309751F5109262091092610943
:1058D000B0936009A0935F09BCCFD383C28340819A
:1058E0005181840F951FC817D90761F44E5F5F4F30
:1058F00088819981480F591F518340838A819B81F8
:10590000938382832115310509F0B0CFF0936209AA
:10591000E09361099ECFFD01DC01C0CF13821282AA
:10592000D7CF81E090E0F8940C949F2CFB01DC0130
:1059300002C001900D9241505040D8F7089510E0F8
:10594000CBEDD0E004C0FE010E94522B2196CC3D4D
:10595000D107C9F7F894FFCF07070707070707071D
:105960000707FFFFFFFF00E10000000000007F00CD
:105970003F001A001800010000C1808100000014DF
:1059800002000038020000000000000000000014C7
:1059900002000038020000000000000000000014B7
:1059A00002000038020000000000000000000014A7
:1059B00002000038020000000000000000000000AB
:1059C000000000630980006D771C7900000000A2D0
:1059D00011A81B00000000020E5D1B7714771476DF
:1059E000140000000000000000BA16BA16BA16BA79
:1059F000167714771476147338776E00000000BEA3
:105A000011B21B000000006E12781B5A10A80F0084
:105A1000FF0100010000FFFF0000010001FF003F47
:105A2000065B4F666D7D077F6F777C395E797140CD
:105A300001000A006400E8030000000019033502B9
:105A4000A7026503D802B602CA020000000085035F
:105A5000E5069E039B03ED03A303C50300000000BE
:105A60000B070D070807BC1600000000212A8A2A30
:105A700045140A14FC13EE13F00B7A0B661445144C
:105A80000A14FC13EE135314DD299829FCFF0000BF
:105A90003C2A942A1E2ADA296314000000001B0EF7
:105AA000671B300AD409CA09C10977147714761420
:105AB000FCFF0000430E711B77147714761400006E
:105AC00000001212E21BC8128F127F127512771497
:105AD000771476146612882A6D082F164B08400832
